S00C000052746F732E7372656370
S11300000C942A000C9447000C9447000C9447006D
S11300100C9447000C9447000C9447000C948308FC
S11300200C9447000C9447000C9447000C94470030
S11300300C9447000C9447000C9447000C94470020
S11300400C94BD050C9447000C9447000C94470095
S11300500C94470011241FBECFE5D8E0DEBFCDBF0E
S113006010E0A0E6B0E0E0ECF1E202C005900D92F1
S1130070AA3DB107D9F725E0AAEDB0E001C01D9271
S1130080A834B207E1F70E942A020C94DE100C9403
S113009000000E94C1060E9488058AED90E00E943B
S11300A0A105E6EEF0E082E0808387E08183D1E081
S11300B0C1E0CC2321F00E947D03C82F0FC0DD23B3
S11300C039F065E080E790E00E94BC04D82F06C0B8
S11300D08091E4009091E5000E94640C85E090E03A
S11300E00E94FE0DE6CF88EC90E00E94FE0D10E029
S11300F00E94F402803109F458C0C82FD0E0FE01F8
S1130100E05AFF4F80818336E1F420E042E350E07F
S113011060E070E08091DA009091DB000E943A0A7E
S1130120E6EEF0E01082118220E040E050E060E072
S113013070E08091DA009091DB000E94AF0910E03A
S113014034C0853691F120E042E350E060E070E095
S11301508091DA009091DB000E943A0A01E0010FDD
S1130160E12FF0E0C05ADF4F8881A6EEB0E0EA51FB
S1130170FF4F80838C9111969C91880F282F220F1A
S1130180220F820F890F8093780020E040E050E036
S113019060E070E08091DA009091DB000E94AF098A
S11301A0023011F0102F01C010E086E990E00E94A7
S11301B0FE0D9ECFBC0180E090E00E94830F20E002
S11301C030E040EA50E40E94E90F20E030E040E8EB
S11301D05AE30E94E90F20E030E048EC52E40E9428
S11301E0E90F0E94540F7093EC006093EB0020E041
S11301F040E050E06BEE70E08091DC009091DD0017
S11302000E94AF091092EA000895CF93DF931F92E2
S1130210CDB7DEB7198288EC90E00E94FE0DEE2483
S1130220E394FF24F394DD24D39401E0C12C10E083
S1130230111119C0002331F088E890E00E94B60340
S1130240082FB7C0FF2031F060E082E00E94200553
S1130250F82EAFC0EE2009F4A4C088E990E00E9413
S1130260B603E82EA6C01130D1F5FF2031F06EE0C0
S113027080E00E942005F82E9CC0C11010C020E030
S11302804AE050E0BE016F5F7F4F8091DC009091A7
S1130290DD000E943A0A813011F4CC24C394DD209D
S11302A041F0698170E080E090E00E94EF03D82E75
S11302B080C0002331F060E081E00E944003082FF9
S11302C078C065E081E00E944003EE24E394FF24BB
S11302D0F394DD24D39401E0C12C12E06AC01230FF
S11302E009F067C0FF2031F06EE082E00E94200533
S11302F0F82E5FC0DD20F9F020E042E350E060E03A
S113030070E08091DA009091DB000E943A0A6091DB
S1130310E60070E080E090E00E94EF03D82E20E039
S113032040E050E060E070E08091DA009091DB0002
S11303300E94AF093EC00023F9F020E042E350E000
S113034060E070E08091DA009091DB000E943A0A4C
S11303506091E70070E080E090E00E94EF03082FD6
S113036020E040E050E060E070E08091DA0090919D
S1130370DB000E94AF091DC0EE2031F060E081E097
S11303800E944003E82E15C065E081E00E9440030E
S1130390EE24E394FF24F394DD24D39401E011E0EC
S11303A008C0EE24E394FF24F394DD24D39401E005
S11303B011E085E090E00E94FE0D3ACF88EC90E0D9
S11303C00E94FE0D8091EA00811106C081E08093B5
S11303D0EA0080E00E94AB0520E042E350E060E0E8
S11303E070E08091DA009091DB000E943A0A8091DB
S11303F0780090E02091EB003091EC008217930795
S113040060F44091E900411108C061E08EE00E946F
S1130410F10581E08093E9000DC08217930750F045
S11304208091E900813031F460E08EE00E94F105B2
S11304301092E90020E040E050E060E070E080913C
S1130440DA009091DB000E94AF0984E690E00E94FC
S1130450FE0DB8CF61E08AE00E944F099093DD0061
S11304608093DC0060E081E00E944F099093DB0000
S11304708093DA00009739F020E040E050E060E03B
S113048070E00E94AF09A12CB12CC12CD12C0F2EED
S1130490F4EEEF2EF0E0FF2EF02D04E020E030E04B
S11304A045E550E068EA70E089E490E00E94A60B1C
S11304B00F2EF2EEEF2EF0E0FF2EF02D01E020E003
S11304C030E040E850E061EB70E085E091E00E94AC
S11304D0A60B0F2EF0EEEF2EF0E0FF2EF02D02E033
S11304E020E030E040E850E06DEB70E08EED91E00C
S11304F00E94A60B0F2EFEEDEF2EF0E0FF2EF02D46
S113050020E030E040E850E069EC70E083E790E000
S11305100E94A60B0E94AF0CFFCFCF93C82F682F69
S1130520617085E10E94F105C1FB662760F984E1F1
S11305300E94F105C2FB662760F983E10E94F10580
S1130540C3FB662760F982E10E94F105CF9108950B
S11305500F931F93CF93DF931F92CDB7DEB78C0118
S11305601982FC011082BE016F5F7F4F8FE10E94F0
S11305707806F80190818981892B8083BE016F5FA1
S11305807F4F8EE10E947806898190E0880F991F41
S1130590F8019081892B8083BE016F5F7F4F8DE1CD
S11305A00E947806898190E0880F991F880F991F0F
S11305B0F8019081892B8083BE016F5F7F4F8BE1AF
S11305C00E947806898190E0880F991F880F991FEF
S11305D0880F991FF8019081892B80830F90DF91F8
S11305E0CF911F910F9108950F931F93CF93DF9392
S11305F01F92CDB7DEB7198210E000E130C081E070
S113060090E0012E02C0880F991F0A94E2F79FE040
S113061089270E948D02CE0101960E94A802898139
S11306208B3089F018F4873099F016C08D3031F092
S11306308E3091F4012F000F000F0EC0012F000F18
S1130640000F0F5F09C0012F000F000F0E5F04C0E1
S1130650012F000F000F0D5F003141F41F5F1430B4
S113066070F204C0CE0101960E94A80289818F30E5
S1130670C9F7802F0F90DF91CF911F910F910895AB
S1130680CF93DF93C82FD62F8091F60081112BC012
S113069061E082E00E94F105C11105C060E083E0E1
S11306A00E94F10506C0C13021F461E083E00E949C
S11306B0F105C0E011C0EC2FF0E06D2F70E00C2EBE
S11306C002C0759567950A94E2F76170E358FF4F8D
S11306D080810E94F105CF5FC43068F360E082E05E
S11306E00E94F10506C060E082E00E94F1051092CC
S11306F0F60080E0DF91CF9108958091F50081119B
S113070010C0E091F400F0E0EF57FF4F6081629574
S11307106F700E944003811117C091E09093F5001F
S113072018C0E091F400F0E0EF57FF4F608180E0E3
S11307300E94400381110AC01092F5009091F400C8
S1130740943031F091E005C091E003C091E001C024
S113075090E0811109C08091F500811105C080915C
S1130760F4008F5F8093F400892F0895CF93DF9373
S1130770EC018091F300811111C09091F200FE010F
S1130780E90FF11D6081662349F062956F7081E085
S11307900E94400381E08093F3001EC08130C9F4BD
S11307A08091F20091E0980F9093F200FE01E80F1F
S11307B0F11D608181E00E9440031092F30080915A
S11307C0F200C80FD11D8881811105C01092F2007A
S11307D003C081E001C081E0DF91CF910895CF9201
S11307E0DF92EF92FF920F931F93611571058105BC
S11307F09105A1F48091F100811108C063E081E0CA
S11308000E94400381E08093F100AFC060E381E087
S11308100E9440031092F10080E0A7C02091F100F3
S1130820222389F139C0C0907900D0907A00E090F9
S11308307B00F0907C00CC0CDD1CEE1CFF1C9701AF
S11308408601000F111F221F331F000F111F221FCB
S1130850331FC00ED11EE21EF31E2AE030E040E03A
S113086050E00E94A010C60ED71EE81EF91EC092CA
S11308707900D0927A00E0927B00F0927C00622FA3
S1130880732F842F952F611571058105910559F6F4
S113089081E08093F10069C06091790070917A00E1
S11308A080917B0090917C006130710581059105F8
S11308B001F12091F00021111CC02AE030E040E059
S11308C050E00E947E10DC01CB01C096A11DB11D39
S11308D0BC01CD01689413F8969587957795679533
S11308E01694D1F781E00E94400381E08093F000E8
S11308F03CC0613071058105910559F12091F000EA
S1130900213039F50F2EFAE0CF2ED12CE12CF12C29
S1130910F02DA70196010E947E10605D81E00E9487
S113092040036091790070917A0080917B009091EE
S11309307C00A70196010E947E10209379003093D9
S11309407A0040937B0050937C001092F00081E089
S11309500CC0613071058105910531F41092F100EC
S11309601092F00080E001C081E01F910F91FF9090
S1130970EF90DF90CF900895683008F05DC020912B
S1130980EF0021110CC070E0685F7F4F759567958B
S113099080E00E94400381E08093EF0032C0213068
S11309A069F470E0685F7F4F660F660F660F80E042
S11309B00E94400382E08093EF0023C0223079F448
S11309C02091EE00FC01E20FF11D608162956F70D1
S11309D081E00E94400383E08093EF0012C0233043
S11309E081F42091EE0031E0320F3093EE00FC01EF
S11309F0E20FF11D608181E00E94400382E0809358
S1130A00EF008091EE00883059F468E080E00E94A5
S1130A1040031092EE0084E08093EF0081E008959B
S1130A208091EF00843051F460E880E00E9440033C
S1130A301092EF0080E0089581E0089581E0089528
S1130A409091ED00911146C081110EC070E0605884
S1130A507F4F7595679575956795759567957595A8
S1130A6067950E94400332C0813079F470E060548D
S1130A707F4F759567957595679575956795759588
S1130A80679580E00E94400321C0823079F470E0D1
S1130A906C567F4F759567957595679575956795B0
S1130AA07595679580E00E94400310C0833071F40F
S1130AB070E06C527F4F7595679575956795759540
S1130AC067957595679580E00E94400381E0809367
S1130AD0ED000895811104C060580E94400314C0C1
S1130AE0813029F4605480E00E9440030DC08230BC
S1130AF029F46C5680E00E94400306C0833021F440
S1130B006C5280E00E9440031092ED0080E0089552
S1130B1087B1806487B987B18F7787B987B18F7DB3
S1130B2087B986B18E7F86B986B18D7F86B986B145
S1130B308B7F86B986B1886086B986B1806886B9AC
S1130B400895009731F09093F8008093F70080E0C7
S1130B50089582E00895883070F4339903C096B103
S1130B60986096B997B18F71892B87B986B18064E3
S1130B7086B980E0089581E008951F920F920FB620
S1130B800F9211242F933F934F935F936F937F930F
S1130B908F939F93AF93BF93EF93FF93E091F700ED
S1130BA0F091F800309761F084B195B19F70909303
S1130BB0FA008093F9008091F9009091FA00099568
S1130BC0FF91EF91BF91AF919F918F917F916F9121
S1130BD05F914F913F912F910F900FBE0F901F90F7
S1130BE01895282F2770982F96959695969580326C
S1130BF008F078C0623008F077C0913011F130F01D
S1130C009230D1F1933009F452C070C061110DC01B
S1130C103BB381E090E002C0880F991F2A95E2F768
S1130C20809583238BBB80E008953BB381E090E003
S1130C3002C0880F991F2A95E2F7832B8BBB80E0B3
S1130C40089561110DC038B381E090E002C0880FAF
S1130C50991F2A95E2F78095832388BB80E0089545
S1130C6038B381E090E002C0880F991F2A95E2F71B
S1130C70832B88BB80E0089561110DC035B381E0FA
S1130C8090E002C0880F991F2A95E2F7809583238C
S1130C9085BB80E0089535B381E090E002C0880F01
S1130CA0991F2A95E2F7832B85BB80E00895611193
S1130CB00DC032B381E090E002C0880F991F2A95DD
S1130CC0E2F78095832382BB80E0089532B381E00C
S1130CD090E002C0880F991F2A95E2F7832B82BB0C
S1130CE080E0089581E0089582E0089580E0089509
S1130CF0282F2770982F96959695969561157105CE
S1130D00D1F18032D0F5913091F028F09230D9F0C1
S1130D10933029F134C089B390E002C0959587954A
S1130D202A95E2F78170FB01808380E0089586B301
S1130D3090E002C0959587952A95E2F78170FB01B2
S1130D40808380E0089583B390E002C095958795F1
S1130D502A95E2F78170FB01808380E0089580B3D7
S1130D6090E002C0959587952A95E2F78170FB0182
S1130D70808380E0089584E0089581E0089580E010
S1130D8008958EE08ABB87ED87BB8CE784BB11BADC
S1130D901BBA18BA8CE385BB8CEE82BB0895CF9343
S1130DA0DF93EC010E94DA0C2091FB003091FC00EF
S1130DB0C9018C0F9D1F883E43E0940758F42817FF
S1130DC0390758F4E901C350DF4F9093FC00809336
S1130DD0FB0005C0C0E0D0E002C0C0E0D0E00E944B
S1130DE08A0DCE01DF91CF9108950895FC010396F9
S1130DF0928381832FEF3FEF34832383968385830C
S1130E009087878310820895FC01118610860895C7
S1130E10CF93DF93FC01DB0121813281E9018A81D7
S1130E209B8113969C938E93129781819281159640
S1130E309C938E9314978A819B81EC017D836C83B0
S1130E40E9017B836A83728361831996FC93EE9331
S1130E50189780818F5F8083DF91CF910895CF931E
S1130E60DF93EB01488159814F3F2FEF520731F453
S1130E70DC011796ED91FC9118970DC0FC01339697
S1130E8003C00280F381E02DA281B3812D913C91B6
S1130E9042175307B0F7A281B381BB83AA83159687
S1130EA0DC93CE931497FD83EC83D383C283998719
S1130EB08887FC0120812F5F2083DF91CF910895E3
S1130EC0FC01A281B3818481958115969C938E93B4
S1130ED01497A481B5818281938113969C938E93F8
S1130EE01297A085B18511968D919C911297E81760
S1130EF0F90731F48481958112969C938E9311970E
S1130F00118610868C9181508C9308951BBC8CE7BC
S1130F108ABD8BE08EBD89B7806189BF089531E1B8
S1130F20FC013083319722E220833197A3E3A0832D
S1130F30319760833197708331971082319760E8DD
S1130F40608331971082319762E06083319763E068
S1130F506083319764E06083319765E06083319703
S1130F6066E06083319767E06083319768E060836F
S1130F70319769E06083319760E160833197308312
S1130F80319732E13083319733E13083319734E163
S1130F903083319735E13083319736E130833197AF
S1130FA037E13083319738E13083319739E1308349
S1130FB0319730E23083319731E2308331972083A7
S1130FC0319723E2208331974083319750833197BF
S1130FD026E22083319727E22083319728E2208379
S1130FE0319729E22083319720E32083319721E34D
S1130FF02083869708950E948607A0914605B091A4
S11310004705CD91CDBFDD91DEBFFF91EF91DF911B
S1131010CF91BF91AF919F918F917F916F915F918C
S11310204F913F912F911F910F91FF90EF90DF907F
S1131030CF90BF90AF909F908F907F906F905F9074
S11310404F903F902F901F900F900FBE0F900895D8
S113105081E008950F920FB6F8940F921F92112415
S11310602F923F924F925F926F927F928F929F92B4
S1131070AF92BF92CF92DF92EF92FF920F931F93A2
S11310802F933F934F935F936F937F938F939F938C
S1131090AF93BF93CF93DF93EF93FF93A091460554
S11310A0B09147050DB60D920EB60D920E94520EE8
S11310B0A0914605B0914705CD91CDBFDD91DEBF2E
S11310C0FF91EF91DF91CF91BF91AF919F918F915C
S11310D07F916F915F914F913F912F911F910F914C
S11310E0FF90EF90DF90CF90BF90AF909F908F9044
S11310F07F906F905F904F903F902F901F900F9034
S11311000FBE0F9008951F920F920FB60F921124E5
S11311102F933F934F935F936F937F938F939F93FB
S1131120AF93BF93EF93FF930E94E00CFF91EF9175
S1131130BF91AF919F918F917F916F915F914F91EB
S11311403F912F910F900FBE0F901F9018950FB6DF
S1131150F8940F92FC01928D81E0911180E00F9040
S11311600FBE08950FB6F8940F92FC01228D938D53
S113117081E0291380E00F900FBE0895CF93DF9391
S1131180EC018C8D8823A9F1411117C0482F50E040
S11311908C819D810E94BF102C8D8C819D81820F3A
S11311A0911D9D838C832A813B818217930708F1CB
S11311B0888199819D838C831CC0482F50E08E8147
S11311C09F810E94BF108C8D90E09195819591092B
S11311D02E813F81280F391F3F832E8348815981F7
S11311E02417350730F42A813B81820F931F9F8394
S11311F08E838A8D8F5F8A8FDF91CF910895FC0152
S1131200808191810097A1F0448D50E0268137813F
S1131210240F351F37832683A281B3812A173B0706
S113122010F097838683CB01668177810E94BF107B
S11312300895CF93DF93EC010FB6F8940F920DC08D
S11312408989882369F0CE0141960E94C80E8111D4
S11312500E94500F8E8D81508E8F8E8D181684F3C0
S11312608FEF8E8F0F900FBE0FB6F8940F920DC0B4
S11312708885882369F0CE0108960E94C80E8111E2
S11312800E94500F8D8D81508D8F8D8D181684F393
S11312908FEF8D8F0F900FBEDF91CF910895AF9296
S11312A0BF92CF92DF92EF92FF920F931F93CF934F
S11312B0DF93882309F445C0062F182F8FE190E0AF
S11312C00E94CF06EC01892BF1F1E12EF12CC02E06
S11312D0D12CEC9C5001ED9CB00CFC9CB00C112466
S11312E0C50101960E94CF0699838883009719F15E
S11312F0A80EB91EBB82AA821A8E9D838C8321E01C
S1131300E21AF108CE9C9001CF9C300DDE9C300D8A
S11313101124820F931F9F838E831B8F0C8F8FEF5B
S11313208D8F8E8FCE0108960E94F606CE014196CF
S11313300E94F60608C0CE010E94F506C0E0D0E087
S113134002C0C0E0D0E0CE01DF91CF911F910F9198
S1131350FF90EF90DF90CF90BF90AF900895CF9221
S1131360DF92EF92FF920F931F93CF93DF9300D0FE
S113137000D01F92CDB7DEB78C017B015D834C8317
S1131380C22ED12C0FB6F8940F92F801928D838D52
S11313909817A8F44C2DB701C8010E94BE08F801A3
S11313A08189882341F0C80141960E94C80E81308A
S11313B011F40E942A080F900FBE81E04DC08C8169
S11313C09D81892B21F40F900FBE80E045C0D11080
S11313D006C0CE0101960E940E0FDD24D3940F9017
S11313E00FBE0E94DA0C0FB6F8940F92F801858DA7
S11313F08F3F09F4158EF801868D8F3F09F4168E00
S11314000F900FBEBE016C5F7F4FCE0101960E940C
S1131410190F81111BC0C8010E94B208882381F0F2
S11314206C817D81C80108960E94AB0EC8010E94A0
S113143019090E948A0D8111A5CF0E942A08A2CF02
S1131440C8010E9419090E948A0D9CCFC8010E94FC
S113145019090E948A0D80E00F900F900F900F9051
S11314600F90DF91CF911F910F91FF90EF90DF903C
S1131470CF900895AF92BF92CF92DF92EF92FF92F6
S11314800F931F93CF93DF9300D000D01F92CDB75B
S1131490DEB78C016B015D834C83E22EF12C0FB619
S11314A0F8940F92F801828D882349F1A680B780C1
S11314B0B601C8010E94FF08E11010C0F801828D36
S11314C08150828F80858823B1F0C80108960E94DC
S11314D0C80E813081F40E942A080DC0F801B78239
S11314E0A6828189882339F0C80141960E94C80EDA
S11314F081110E942A080F900FBE81E04DC08C819B
S11315009D81892B21F40F900FBE80E045C0F1101E
S113151006C0CE0101960E940E0FFF24F3940F9093
S11315200FBE0E94DA0C0FB6F8940F92F801858D65
S11315308F3F09F4158EF801868D8F3F09F4168EBE
S11315400F900FBEBE016C5F7F4FCE0101960E94CB
S1131550190F81111BC0C8010E94A708882381F0BC
S11315606C817D81C80141960E94AB0EC8010E9426
S113157019090E948A0D811192CF0E942A088FCFE7
S1131580C8010E9419090E948A0D89CFC8010E94CE
S113159019090E948A0D80E00F900F900F900F9010
S11315A00F90DF91CF911F910F91FF90EF90DF90FB
S11315B0CF90BF90AF900895CF93DF93EC018F89C4
S11315C0988D0E94F506CE010E94F506DF91CF9119
S11315D00895EF92FF920F931F93CF93DF937C01B3
S11315E0EB0181E290E00E94CF068C01892BB9F0D7
S11315F0209721F4C7010E94CF0601C0CE01F80153
S1131600908F878B009731F4C8010E94F50600E0A3
S113161010E005C0A70165EA70E00E94C810C80187
S1131620DF91CF911F910F91FF90EF9008951F9339
S1131630CF93DF93EC01142F48E050E049960E94C9
S1131640CF1018A2153008F014E01E8BCE010296BC
S11316500E940407CE010C960E940407D987C8870C
S113166085E090E0811B91099D878C87DB8BCA8B79
S1131670DF91CF911F910895CF93C0E010C08C2FBC
S113168090E09C01220F331F220F331F220F331FC0
S1131690820F931F875E9A4F0E94F606CF5FC53074
S11316A070F380E195E00E94F60687E095E00E94E1
S11316B0F6068AEF94E00E94F60681EF94E00E9419
S11316C0F60680E195E0909306058093050587E092
S11316D095E09093040580930305CF910895CF93EB
S11316E0DF93EC01E0914605F091470593838283F3
S11316F08091ED049091EE04C817D90768F46091C5
S113170046057091470580910305909104056E5F2D
S11317107F4F0E942F0717C06091460570914705BF
S113172080910505909106056E5F7F4F0E942F07FB
S11317308091860090918700C817D90720F4D09330
S11317408700C0938600DF91CF9108952F923F9236
S11317504F925F927F928F929F92AF92BF92CF925D
S1131760DF92EF92FF920F931F93CF93DF9300D0FA
S113177000D0CDB7DEB79A8389834B015C834B835A
S11317801901702EB6012501CA010E94E90A5C0103
S1131790009709F470C0FC01C788D08C8B819C81B0
S11317A00197C80ED91E0B811C819201472DB401EB
S11317B0C5010E94170BA10169817A81C6010E94AB
S11317C08F07F50191838083E114F10419F0F70187
S11317D0B182A0820FB6F8940F928091EF048F5FCC
S11317E08093EF048091460590914705892B59F425
S11317F0B0924705A09246058091EF04813091F4A0
S11318000E943C0B0FC08091EA0481110BC0E0914F
S11318104605F09147058689781620F0B092470571
S1131820A0924605F50186899091EC04981710F46E
S11318308093EC049091E5049F5F9093E50490916C
S1131840EB04981710F48093EB0490E0B5016E5FFD
S11318507F4F9C01220F331F220F331F220F331F90
S1131860820F931F875E9A4F0E9408070F900FBE46
S1131870F1E0F98302C08FEF8983E981E13069F4F3
S11318808091EA04882349F0E0914605F0914705E8
S11318908689871510F40E942A0889810F900F9079
S11318A00F900F90DF91CF911F910F91FF90EF90C8
S11318B0DF90CF90BF90AF909F908F907F905F907C
S11318C04F903F902F900895EF92FF920F931F93A4
S11318D0CF93DF93EC010FB6F8940F9280914605F5
S11318E0909147058C179D0711F4C0E0D0E0209734
S11318F029F4009146051091470501C08E01780135
S113190082E0E80EF11CC7010E946007F801848997
S11319109589892B21F0C8010C960E946007B701B4
S113192081EF94E00E9408078091F0048F5F809318
S1131930F0048091E5048F5F8093E5040F900FBE5F
S11319408091EA04882321F0CD2B11F40E942A0807
S1131950DF91CF911F910F91FF90EF900895AF9277
S1131960BF92CF92DF92EF92FF920F93A12CB12CF2
S1131970C12CD12CE12CF12C00E020E030E045E535
S113198050E064ED70E08DE49EE00E94A60B81308F
S113199049F4F8948093EA041092EE041092ED0452
S11319A00E94FB070F91FF90EF90DF90CF90BF90C4
S11319B0AF9008958091E9048F5F8093E9040895BE
S11319C00F931F93CF93DF938091E904811198C003
S11319D08091ED049091EE0401969093EE0480932F
S11319E0ED048091ED049091EE04892B99F580919A
S11319F00505909106052091030530910405309367
S1131A0006052093050590930405809303058091B2
S1131A10E6048F5F8093E604E0910505F0910605E6
S1131A208081811107C08FEF9FEF9093870080938F
S1131A30860010C0E0910505F09106050580F68149
S1131A40E02D0680F781E02D8281938190938700B9
S1131A50809386002091ED043091EE0480918600FD
S1131A60909187002817390708F44FC0E0910505C5
S1131A70F09106058081811107C08FEF9FEF90934D
S1131A8087008093860041C0E0910505F09106052A
S1131A900580F681E02DC681D7818A819B812091C2
S1131AA0ED043091EE042817390728F49093870049
S1131AB0809386002AC08E010E5F1F4FC8010E94CA
S1131AC060078C899D89892B21F0CE010C960E9498
S1131AD060078E899091EB04981710F48093EB04BF
S1131AE090E09C01220F331F220F331F220F331F5C
S1131AF0820F931FB801875E9A4F0E940807B6CFE2
S1131B008091E8048F5F8093E804DF91CF911F9167
S1131B100F910895FF920F931F93CF93DF930FB606
S1131B20F8940F928091E90481508093E9048091A4
S1131B30E904811158C08091EF04811132C056C06C
S1131B40E091FF04F0910005C681D781CE010C9687
S1131B500E9460078E010E5F1F4FC8010E9460073C
S1131B608E899091EB04981710F48093EB0490E025
S1131B709C01220F331F220F331F220F331F820FAA
S1131B80931FB801875E9A4F0E9408079E89E091CF
S1131B904605F09147058689981720F0FF24F394B1
S1131BA001C0F12C8091FA048111CACF8091E8041C
S1131BB0811108C00BC00E94E00C8091E8048150A0
S1131BC08093E8048091E8048111F5CF81E0F81650
S1131BD021F08091E704813041F41092E7040E94DF
S1131BE02A0881E003C080E001C080E00F900FBEAE
S1131BF0DF91CF911F910F91FF900895CF93DF93C1
S1131C00EC01892BA9F00E94DA0C8091ED049091EB
S1131C10EE04C80FD91F809146059091470502969E
S1131C200E946007CE010E946F0B0E948A0D01C0C2
S1131C3080E0811102C00E942A08DF91CF910895AB
S1131C40CF93DF938091F004882321F10E94DA0C72
S1131C50C091F1040E948A0DCC23E1F00FB6F894F0
S1131C600F92E091F604F091F704C681D781CE017A
S1131C7002960E9460078091EF0481508093EF04E4
S1131C808091F00481508093F0040F900FBECE0138
S1131C900E94DC0ADF91CF9108950E94200E0E94D9
S1131CA02A08FBCF8091E904882349F081E08093DE
S1131CB0E70408958091EB0481508093EB048091B4
S1131CC0EB0490E0FC01EE0FFF1FEE0FFF1FEE0F81
S1131CD0FF1F8E0F9F1FFC01E75EFA4F8081882350
S1131CE049F38091EB0490E09C01220F331F220FF3
S1131CF0331F220F331F280F391FD901A75EBA4F94
S1131D001196ED91FC9112970280F381E02D1296C9
S1131D10FC93EE931197245E3A4FE217F30729F4EC
S1131D2022813381FD0132832183FC01EE0FFF1FE9
S1131D30EE0FFF1FEE0FFF1F8E0F9F1FFC01E75ECC
S1131D40FA4F0180F281E02D8681978190934705B7
S1131D50809346050895CF93DF93EB016091460588
S1131D6070914705645F7F4F0E942F07809146055D
S1131D709091470502960E9460078091ED0490912E
S1131D80EE048C0F9D1F0E946F0BDF91CF9108957D
S1131D900F931F93CF93DF93DC011596ED91FC9184
S1131DA01697C681D7818E01045F1F4FC8010E9418
S1131DB060078091E90481111CC00A501109C8010F
S1131DC00E9460078E899091EB04981710F4809319
S1131DD0EB0490E09C01220F331F220F331F220FCC
S1131DE0331F820F931FB801875E9A4F0E94080722
S1131DF005C0B8018AEF94E00E9408079E89E0912B
S1131E004605F09147058689981710F081E001C0D6
S1131E1080E0DF91CF911F910F9108952091E60406
S1131E20FC0120832091ED043091EE043283218360
S1131E300895FC010FB6F8940F9290818091E60406
S1131E40981749F0218132818091ED049091EE043C
S1131E5082179307F8F48091ED049091EE04418188
S1131E605281841B950BDB012D913C9111978217B4
S1131E70930790F4CF01E091ED04F091EE04BF01DB
S1131E80641B750B261B370B2D933C930E940E0F7E
S1131E9080E003C081E001C081E00F900FBE08958F
S1131EA081E08093E70408950E94C80F88F09F574B
S1131EB098F0B92F9927B751B0F0E1F0660F771F6A
S1131EC0881F991F1AF0BA95C9F714C0B13091F060
S1131ED00E94E20FB1E008950C94E20F672F782F6F
S1131EE08827B85F39F0B93FCCF386957795679525
S1131EF0B395D9F73EF490958095709561957F4F91
S1131F008F4F9F4F0895E89409C097FB3EF4909536
S1131F108095709561957F4F8F4F9F4F9923A9F0BE
S1131F20F92F96E9BB279395F6958795779567954D
S1131F30B795F111F8CFFAF4BB0F11F460FF1BC091
S1131F406F5F7F4F8F4F9F4F16C0882311F096E924
S1131F5011C0772321F09EE8872F762F05C06623D2
S1131F6071F096E8862F70E060E02AF09A95660F8B
S1131F70771F881FDAF7880F9695879597F9089544
S1131F8057FD9058440F551F59F05F3F71F0479526
S1131F90880F97FB991F61F09F3F79F0879508950B
S1131FA0121613061406551FF2CF4695F1DF08C02A
S1131FB0161617061806991FF1CF86957105610547
S1131FC008940895E894BB2766277727CB0197F9EF
S1131FD008950E94FC0F0C946D100E945F1038F05D
S1131FE00E94661020F0952311F00C9456100C9466
S1131FF05C1011240C94E30F0E94C00F70F3959FA2
S1132000C1F3950F50E0551F629FF001729FBB27EB
S1132010F00DB11D639FAA27F00DB11DAA1F649F87
S11320206627B00DA11D661F829F2227B00DA11D3A
S1132030621F739FB00DA11D621F839FA00D611DC0
S1132040221F749F3327A00D611D231F849F600DE1
S1132050211D822F762F6A2F11249F5750409AF00A
S1132060F1F088234AF0EE0FFF1FBB1F661F771F96
S1132070881F91505040A9F79E3F510580F00C9461
S113208056100C94E30F5F3FE4F3983ED4F3869527
S113209077956795B795F795E7959F5FC1F7FE2B01
S11320A0880F911D9695879597F9089597F99F67DD
S11320B080E870E060E008959FEF80EC08950024CC
S11320C00A941616170618060906089500240A9499
S11320D012161306140605060895092E0394000C1F
S11320E011F4882352F0BB0F40F4BF2B11F460FFAE
S11320F004C06F5F7F4F8F4F9F4F0895A1E21A2E48
S1132100AA1BBB1BFD010DC0AA1FBB1FEE1FFF1F97
S1132110A217B307E407F50720F0A21BB30BE40BE7
S1132120F50B661F771F881F991F1A9469F760952E
S11321307095809590959B01AC01BD01CF010895E8
S1132140052E97FB1EF400940E94B71057FD07D08C
S11321500E947E1007FC03D04EF40C94B7105095E7
S11321604095309521953F4F4F4F5F4F089590957F
S11321708095709561957F4F8F4F9F4F0895FB0118
S1132180DC0102C001900D9241505040D8F70895EF
S1132190DC0101C06D9341505040E0F70895FB010C
S11321A0DC014150504048F001900D920020C9F7E5
S11321B001C01D9241505040E0F70895F894FFCFBC
S11321C0070809630405066301020363630065638A
S11321D00303000F08080F001B0100000008090A90
S11321E00C022801060CFFFF54454D502041542099
S11321F0524F4F4D203A2000444553495245442004
S113220054454D50203A20004150505F494E4954A6
S1132210004C43445F434F4E54524F4C004144439F
S11322205F434F4E54524F4C004B505F434F4E54FC
S10D2230524F4C0049444C45000095
S9030000FC
